120200310PAGO FACIL               090061597ASOC. ARG. DE EMPL.DE LA MARINA MER                                                  
320200310000001ASOC. ARG. DE EMPL.DE LA MARINA MER                                                                              
50000110202003092020031033653823679          PES0000342798A165082020030912240031                                                
682350101947336538236792020021                                                                                                  
7PESE                                                                                000000000342798                            
50000210202003092020031030669862926          PES0000784357A166202020030910410034                                                
682352602234306698629262020022                                                                                                  
7PESE                                                                                000000000784357                            
50000310202003092020031030559415673          PES0000999291A152862020030909040012                                                
682352800344305594156732020021                                                                                                  
7PESE                                                                                000000000999291                            
82020031000000100000030000021264460000000000000000000000000000000000000000003                                                   
9202003100000010000003000002126446000000000000000000000000000000000000000000003                                                 
