120200423PAGO FACIL               090061597ASOC. ARG. DE EMPL.DE LA MARINA MER                                                  
320200423000001ASOC. ARG. DE EMPL.DE LA MARINA MER                                                                              
50000110202004222020042330678412194          PES0000322859A347152020042211310042                                                
682352802254306784121942020024                                                                                                  
7PESE                                                                                000000000322859                            
50000210202004222020042330678412194          PES0000333110A347152020042211310041                                                
682352802254306784121942020031                                                                                                  
7PESE                                                                                000000000333110                            
82020042300000100000020000006559690000000000000000000000000000000000000000002                                                   
9202004230000010000002000000655969000000000000000000000000000000000000000000002                                                 
