120200211PAGO FACIL               090061597ASOC. ARG. DE EMPL.DE LA MARINA MER                                                  
320200211000001ASOC. ARG. DE EMPL.DE LA MARINA MER                                                                              
50000110202002102020021130710413076          PES0000094850A152452020021012000003                                                
682350102472307104130762020019                                                                                                  
7PESP                                                                                000000000094850                            
50000210202002102020021130714237418          PES0000162244L260012020021019072216                                                
682352602491307142374182020015                                                                                                  
7PESE                                                                                000000000162244                            
82020021100000100000020000002570940000000000000000000000000000000000000000002                                                   
9202002110000010000002000000257094000000000000000000000000000000000000000000002                                                 
